{
	"tasks/Task_13.sol": {
		"ExampleUsage": {
			"abi": [
				{
					"inputs": [
						{
							"internalType": "uint256",
							"name": "_value",
							"type": "uint256"
						}
					],
					"name": "assertExample",
					"outputs": [],
					"stateMutability": "pure",
					"type": "function"
				},
				{
					"inputs": [
						{
							"internalType": "uint256",
							"name": "_value",
							"type": "uint256"
						}
					],
					"name": "elseIfExample",
					"outputs": [
						{
							"internalType": "string",
							"name": "",
							"type": "string"
						}
					],
					"stateMutability": "pure",
					"type": "function"
				},
				{
					"inputs": [
						{
							"internalType": "uint256",
							"name": "_value",
							"type": "uint256"
						}
					],
					"name": "ifElseExample",
					"outputs": [
						{
							"internalType": "string",
							"name": "",
							"type": "string"
						}
					],
					"stateMutability": "pure",
					"type": "function"
				},
				{
					"inputs": [
						{
							"internalType": "bool",
							"name": "_condition",
							"type": "bool"
						}
					],
					"name": "revertExample",
					"outputs": [],
					"stateMutability": "pure",
					"type": "function"
				},
				{
					"inputs": [
						{
							"internalType": "uint256",
							"name": "_value",
							"type": "uint256"
						}
					],
					"name": "ternaryExample",
					"outputs": [
						{
							"internalType": "string",
							"name": "",
							"type": "string"
						}
					],
					"stateMutability": "pure",
					"type": "function"
				}
			],
			"devdoc": {
				"kind": "dev",
				"methods": {},
				"version": 1
			},
			"evm": {
				"assembly": "    /* \"tasks/Task_13.sol\":58:1905  contract ExampleUsage {... */\n  mstore(0x40, 0x80)\n  callvalue\n  dup1\n  iszero\n  tag_1\n  jumpi\n  revert(0x00, 0x00)\ntag_1:\n  pop\n  dataSize(sub_0)\n  dup1\n  dataOffset(sub_0)\n  0x00\n  codecopy\n  0x00\n  return\nstop\n\nsub_0: assembly {\n        /* \"tasks/Task_13.sol\":58:1905  contract ExampleUsage {... */\n      mstore(0x40, 0x80)\n      callvalue\n      dup1\n      iszero\n      tag_1\n      jumpi\n      revert(0x00, 0x00)\n    tag_1:\n      pop\n      jumpi(tag_2, lt(calldatasize, 0x04))\n      shr(0xe0, calldataload(0x00))\n      dup1\n      0xa43b47bf\n      eq\n      tag_3\n      jumpi\n      dup1\n      0xb7e70487\n      eq\n      tag_4\n      jumpi\n      dup1\n      0xbe93fcb1\n      eq\n      tag_5\n      jumpi\n      dup1\n      0xe19b6e4f\n      eq\n      tag_6\n      jumpi\n      dup1\n      0xeb11813b\n      eq\n      tag_7\n      jumpi\n    tag_2:\n      revert(0x00, 0x00)\n        /* \"tasks/Task_13.sol\":1049:1406  function elseIfExample(uint256 _value) public pure returns (string memory) {... */\n    tag_3:\n      tag_8\n      0x04\n      dup1\n      calldatasize\n      sub\n      dup2\n      add\n      swap1\n      tag_9\n      swap2\n      swap1\n      tag_10\n      jump\t// in\n    tag_9:\n      tag_11\n      jump\t// in\n    tag_8:\n      mload(0x40)\n      tag_12\n      swap2\n      swap1\n      tag_13\n      jump\t// in\n    tag_12:\n      mload(0x40)\n      dup1\n      swap2\n      sub\n      swap1\n      return\n        /* \"tasks/Task_13.sol\":701:989  function ifElseExample(uint256 _value) public pure returns (string memory) {... */\n    tag_4:\n      tag_14\n      0x04\n      dup1\n      calldatasize\n      sub\n      dup2\n      add\n      swap1\n      tag_15\n      swap2\n      swap1\n      tag_10\n      jump\t// in\n    tag_15:\n      tag_16\n      jump\t// in\n    tag_14:\n      mload(0x40)\n      tag_17\n      swap2\n      swap1\n      tag_13\n      jump\t// in\n    tag_17:\n      mload(0x40)\n      dup1\n      swap2\n      sub\n      swap1\n      return\n        /* \"tasks/Task_13.sol\":375:641  function revertExample(bool _condition) public pure {... */\n    tag_5:\n      tag_18\n      0x04\n      dup1\n      calldatasize\n      sub\n      dup2\n      add\n      swap1\n      tag_19\n      swap2\n      swap1\n      tag_20\n      jump\t// in\n    tag_19:\n      tag_21\n      jump\t// in\n    tag_18:\n      stop\n        /* \"tasks/Task_13.sol\":1498:1817  function ternaryExample(uint256 _value) public pure returns (string memory) {... */\n    tag_6:\n      tag_22\n      0x04\n      dup1\n      calldatasize\n      sub\n      dup2\n      add\n      swap1\n      tag_23\n      swap2\n      swap1\n      tag_10\n      jump\t// in\n    tag_23:\n      tag_24\n      jump\t// in\n    tag_22:\n      mload(0x40)\n      tag_25\n      swap2\n      swap1\n      tag_13\n      jump\t// in\n    tag_25:\n      mload(0x40)\n      dup1\n      swap2\n      sub\n      swap1\n      return\n        /* \"tasks/Task_13.sol\":138:316  function assertExample(uint256 _value) public pure {... */\n    tag_7:\n      tag_26\n      0x04\n      dup1\n      calldatasize\n      sub\n      dup2\n      add\n      swap1\n      tag_27\n      swap2\n      swap1\n      tag_10\n      jump\t// in\n    tag_27:\n      tag_28\n      jump\t// in\n    tag_26:\n      stop\n        /* \"tasks/Task_13.sol\":1049:1406  function elseIfExample(uint256 _value) public pure returns (string memory) {... */\n    tag_11:\n        /* \"tasks/Task_13.sol\":1109:1122  string memory */\n      0x60\n        /* \"tasks/Task_13.sol\":1207:1209  10 */\n      0x0a\n        /* \"tasks/Task_13.sol\":1198:1204  _value */\n      dup3\n        /* \"tasks/Task_13.sol\":1198:1209  _value > 10 */\n      gt\n        /* \"tasks/Task_13.sol\":1194:1401  if (_value > 10) {... */\n      iszero\n      tag_30\n      jumpi\n        /* \"tasks/Task_13.sol\":1224:1257  return \"Value is greater than 10\" */\n      mload(0x40)\n      dup1\n      0x40\n      add\n      0x40\n      mstore\n      dup1\n      0x18\n      dup2\n      mstore\n      0x20\n      add\n      0x56616c75652069732067726561746572207468616e2031300000000000000000\n      dup2\n      mstore\n      pop\n      swap1\n      pop\n      jump(tag_29)\n        /* \"tasks/Task_13.sol\":1194:1401  if (_value > 10) {... */\n    tag_30:\n        /* \"tasks/Task_13.sol\":1287:1289  10 */\n      0x0a\n        /* \"tasks/Task_13.sol\":1277:1283  _value */\n      dup3\n        /* \"tasks/Task_13.sol\":1277:1289  _value == 10 */\n      sub\n        /* \"tasks/Task_13.sol\":1273:1401  if (_value == 10) {... */\n      tag_32\n      jumpi\n        /* \"tasks/Task_13.sol\":1304:1332  return \"Value is exactly 10\" */\n      mload(0x40)\n      dup1\n      0x40\n      add\n      0x40\n      mstore\n      dup1\n      0x13\n      dup2\n      mstore\n      0x20\n      add\n      0x56616c75652069732065786163746c7920313000000000000000000000000000\n      dup2\n      mstore\n      pop\n      swap1\n      pop\n      jump(tag_29)\n        /* \"tasks/Task_13.sol\":1273:1401  if (_value == 10) {... */\n    tag_32:\n        /* \"tasks/Task_13.sol\":1361:1391  return \"Value is less than 10\" */\n      mload(0x40)\n      dup1\n      0x40\n      add\n      0x40\n      mstore\n      dup1\n      0x15\n      dup2\n      mstore\n      0x20\n      add\n      0x56616c7565206973206c657373207468616e2031300000000000000000000000\n      dup2\n      mstore\n      pop\n      swap1\n      pop\n        /* \"tasks/Task_13.sol\":1049:1406  function elseIfExample(uint256 _value) public pure returns (string memory) {... */\n    tag_29:\n      swap2\n      swap1\n      pop\n      jump\t// out\n        /* \"tasks/Task_13.sol\":701:989  function ifElseExample(uint256 _value) public pure returns (string memory) {... */\n    tag_16:\n        /* \"tasks/Task_13.sol\":761:774  string memory */\n      0x60\n        /* \"tasks/Task_13.sol\":867:869  10 */\n      0x0a\n        /* \"tasks/Task_13.sol\":858:864  _value */\n      dup3\n        /* \"tasks/Task_13.sol\":858:869  _value > 10 */\n      gt\n        /* \"tasks/Task_13.sol\":854:984  if (_value > 10) {... */\n      iszero\n      tag_35\n      jumpi\n        /* \"tasks/Task_13.sol\":884:917  return \"Value is greater than 10\" */\n      mload(0x40)\n      dup1\n      0x40\n      add\n      0x40\n      mstore\n      dup1\n      0x18\n      dup2\n      mstore\n      0x20\n      add\n      0x56616c75652069732067726561746572207468616e2031300000000000000000\n      dup2\n      mstore\n      pop\n      swap1\n      pop\n      jump(tag_34)\n        /* \"tasks/Task_13.sol\":854:984  if (_value > 10) {... */\n    tag_35:\n        /* \"tasks/Task_13.sol\":946:974  return \"Value is 10 or less\" */\n      mload(0x40)\n      dup1\n      0x40\n      add\n      0x40\n      mstore\n      dup1\n      0x13\n      dup2\n      mstore\n      0x20\n      add\n      0x56616c7565206973203130206f72206c65737300000000000000000000000000\n      dup2\n      mstore\n      pop\n      swap1\n      pop\n        /* \"tasks/Task_13.sol\":701:989  function ifElseExample(uint256 _value) public pure returns (string memory) {... */\n    tag_34:\n      swap2\n      swap1\n      pop\n      jump\t// out\n        /* \"tasks/Task_13.sol\":375:641  function revertExample(bool _condition) public pure {... */\n    tag_21:\n        /* \"tasks/Task_13.sol\":574:584  _condition */\n      dup1\n        /* \"tasks/Task_13.sol\":569:636  if (!_condition) {... */\n      tag_38\n      jumpi\n        /* \"tasks/Task_13.sol\":599:626  revert(\"Invalid condition\") */\n      mload(0x40)\n      0x08c379a000000000000000000000000000000000000000000000000000000000\n      dup2\n      mstore\n      0x04\n      add\n      tag_39\n      swap1\n      tag_40\n      jump\t// in\n    tag_39:\n      mload(0x40)\n      dup1\n      swap2\n      sub\n      swap1\n      revert\n        /* \"tasks/Task_13.sol\":569:636  if (!_condition) {... */\n    tag_38:\n        /* \"tasks/Task_13.sol\":375:641  function revertExample(bool _condition) public pure {... */\n      pop\n      jump\t// out\n        /* \"tasks/Task_13.sol\":1498:1817  function ternaryExample(uint256 _value) public pure returns (string memory) {... */\n    tag_24:\n        /* \"tasks/Task_13.sol\":1559:1572  string memory */\n      0x60\n        /* \"tasks/Task_13.sol\":1695:1697  10 */\n      0x0a\n        /* \"tasks/Task_13.sol\":1686:1692  _value */\n      dup3\n        /* \"tasks/Task_13.sol\":1686:1697  _value > 10 */\n      gt\n        /* \"tasks/Task_13.sol\":1682:1812  if (_value > 10) {... */\n      iszero\n      tag_42\n      jumpi\n        /* \"tasks/Task_13.sol\":1712:1745  return \"Value is greater than 10\" */\n      mload(0x40)\n      dup1\n      0x40\n      add\n      0x40\n      mstore\n      dup1\n      0x18\n      dup2\n      mstore\n      0x20\n      add\n      0x56616c75652069732067726561746572207468616e2031300000000000000000\n      dup2\n      mstore\n      pop\n      swap1\n      pop\n      jump(tag_41)\n        /* \"tasks/Task_13.sol\":1682:1812  if (_value > 10) {... */\n    tag_42:\n        /* \"tasks/Task_13.sol\":1774:1802  return \"Value is 10 or less\" */\n      mload(0x40)\n      dup1\n      0x40\n      add\n      0x40\n      mstore\n      dup1\n      0x13\n      dup2\n      mstore\n      0x20\n      add\n      0x56616c7565206973203130206f72206c65737300000000000000000000000000\n      dup2\n      mstore\n      pop\n      swap1\n      pop\n        /* \"tasks/Task_13.sol\":1498:1817  function ternaryExample(uint256 _value) public pure returns (string memory) {... */\n    tag_41:\n      swap2\n      swap1\n      pop\n      jump\t// out\n        /* \"tasks/Task_13.sol\":138:316  function assertExample(uint256 _value) public pure {... */\n    tag_28:\n        /* \"tasks/Task_13.sol\":308:309  0 */\n      0x00\n        /* \"tasks/Task_13.sol\":298:304  _value */\n      dup2\n        /* \"tasks/Task_13.sol\":298:309  _value != 0 */\n      sub\n        /* \"tasks/Task_13.sol\":291:310  assert(_value != 0) */\n      tag_45\n      jumpi\n      tag_46\n      tag_47\n      jump\t// in\n    tag_46:\n    tag_45:\n        /* \"tasks/Task_13.sol\":138:316  function assertExample(uint256 _value) public pure {... */\n      pop\n      jump\t// out\n        /* \"#utility.yul\":88:205   */\n    tag_49:\n        /* \"#utility.yul\":197:198   */\n      0x00\n        /* \"#utility.yul\":194:195   */\n      0x00\n        /* \"#utility.yul\":187:199   */\n      revert\n        /* \"#utility.yul\":334:411   */\n    tag_51:\n        /* \"#utility.yul\":371:378   */\n      0x00\n        /* \"#utility.yul\":400:405   */\n      dup2\n        /* \"#utility.yul\":389:405   */\n      swap1\n      pop\n        /* \"#utility.yul\":334:411   */\n      swap2\n      swap1\n      pop\n      jump\t// out\n        /* \"#utility.yul\":417:539   */\n    tag_52:\n        /* \"#utility.yul\":490:514   */\n      tag_70\n        /* \"#utility.yul\":508:513   */\n      dup2\n        /* \"#utility.yul\":490:514   */\n      tag_51\n      jump\t// in\n    tag_70:\n        /* \"#utility.yul\":483:488   */\n      dup2\n        /* \"#utility.yul\":480:515   */\n      eq\n        /* \"#utility.yul\":470:533   */\n      tag_71\n      jumpi\n        /* \"#utility.yul\":529:530   */\n      0x00\n        /* \"#utility.yul\":526:527   */\n      0x00\n        /* \"#utility.yul\":519:531   */\n      revert\n        /* \"#utility.yul\":470:533   */\n    tag_71:\n        /* \"#utility.yul\":417:539   */\n      pop\n      jump\t// out\n        /* \"#utility.yul\":545:684   */\n    tag_53:\n        /* \"#utility.yul\":591:596   */\n      0x00\n        /* \"#utility.yul\":629:635   */\n      dup2\n        /* \"#utility.yul\":616:636   */\n      calldataload\n        /* \"#utility.yul\":607:636   */\n      swap1\n      pop\n        /* \"#utility.yul\":645:678   */\n      tag_73\n        /* \"#utility.yul\":672:677   */\n      dup2\n        /* \"#utility.yul\":645:678   */\n      tag_52\n      jump\t// in\n    tag_73:\n        /* \"#utility.yul\":545:684   */\n      swap3\n      swap2\n      pop\n      pop\n      jump\t// out\n        /* \"#utility.yul\":690:1019   */\n    tag_10:\n        /* \"#utility.yul\":749:755   */\n      0x00\n        /* \"#utility.yul\":798:800   */\n      0x20\n        /* \"#utility.yul\":786:795   */\n      dup3\n        /* \"#utility.yul\":777:784   */\n      dup5\n        /* \"#utility.yul\":773:796   */\n      sub\n        /* \"#utility.yul\":769:801   */\n      slt\n        /* \"#utility.yul\":766:885   */\n      iszero\n      tag_75\n      jumpi\n        /* \"#utility.yul\":804:883   */\n      tag_76\n      tag_49\n      jump\t// in\n    tag_76:\n        /* \"#utility.yul\":766:885   */\n    tag_75:\n        /* \"#utility.yul\":924:925   */\n      0x00\n        /* \"#utility.yul\":949:1002   */\n      tag_77\n        /* \"#utility.yul\":994:1001   */\n      dup5\n        /* \"#utility.yul\":985:991   */\n      dup3\n        /* \"#utility.yul\":974:983   */\n      dup6\n        /* \"#utility.yul\":970:992   */\n      add\n        /* \"#utility.yul\":949:1002   */\n      tag_53\n      jump\t// in\n    tag_77:\n        /* \"#utility.yul\":939:1002   */\n      swap2\n      pop\n        /* \"#utility.yul\":895:1012   */\n      pop\n        /* \"#utility.yul\":690:1019   */\n      swap3\n      swap2\n      pop\n      pop\n      jump\t// out\n        /* \"#utility.yul\":1025:1124   */\n    tag_54:\n        /* \"#utility.yul\":1077:1083   */\n      0x00\n        /* \"#utility.yul\":1111:1116   */\n      dup2\n        /* \"#utility.yul\":1105:1117   */\n      mload\n        /* \"#utility.yul\":1095:1117   */\n      swap1\n      pop\n        /* \"#utility.yul\":1025:1124   */\n      swap2\n      swap1\n      pop\n      jump\t// out\n        /* \"#utility.yul\":1130:1299   */\n    tag_55:\n        /* \"#utility.yul\":1214:1225   */\n      0x00\n        /* \"#utility.yul\":1248:1254   */\n      dup3\n        /* \"#utility.yul\":1243:1246   */\n      dup3\n        /* \"#utility.yul\":1236:1255   */\n      mstore\n        /* \"#utility.yul\":1288:1292   */\n      0x20\n        /* \"#utility.yul\":1283:1286   */\n      dup3\n        /* \"#utility.yul\":1279:1293   */\n      add\n        /* \"#utility.yul\":1264:1293   */\n      swap1\n      pop\n        /* \"#utility.yul\":1130:1299   */\n      swap3\n      swap2\n      pop\n      pop\n      jump\t// out\n        /* \"#utility.yul\":1305:1444   */\n    tag_56:\n        /* \"#utility.yul\":1394:1400   */\n      dup3\n        /* \"#utility.yul\":1389:1392   */\n      dup2\n        /* \"#utility.yul\":1384:1387   */\n      dup4\n        /* \"#utility.yul\":1378:1401   */\n      mcopy\n        /* \"#utility.yul\":1435:1436   */\n      0x00\n        /* \"#utility.yul\":1426:1432   */\n      dup4\n        /* \"#utility.yul\":1421:1424   */\n      dup4\n        /* \"#utility.yul\":1417:1433   */\n      add\n        /* \"#utility.yul\":1410:1437   */\n      mstore\n        /* \"#utility.yul\":1305:1444   */\n      pop\n      pop\n      pop\n      jump\t// out\n        /* \"#utility.yul\":1450:1552   */\n    tag_57:\n        /* \"#utility.yul\":1491:1497   */\n      0x00\n        /* \"#utility.yul\":1542:1544   */\n      0x1f\n        /* \"#utility.yul\":1538:1545   */\n      not\n        /* \"#utility.yul\":1533:1535   */\n      0x1f\n        /* \"#utility.yul\":1526:1531   */\n      dup4\n        /* \"#utility.yul\":1522:1536   */\n      add\n        /* \"#utility.yul\":1518:1546   */\n      and\n        /* \"#utility.yul\":1508:1546   */\n      swap1\n      pop\n        /* \"#utility.yul\":1450:1552   */\n      swap2\n      swap1\n      pop\n      jump\t// out\n        /* \"#utility.yul\":1558:1935   */\n    tag_58:\n        /* \"#utility.yul\":1646:1649   */\n      0x00\n        /* \"#utility.yul\":1674:1713   */\n      tag_83\n        /* \"#utility.yul\":1707:1712   */\n      dup3\n        /* \"#utility.yul\":1674:1713   */\n      tag_54\n      jump\t// in\n    tag_83:\n        /* \"#utility.yul\":1729:1800   */\n      tag_84\n        /* \"#utility.yul\":1793:1799   */\n      dup2\n        /* \"#utility.yul\":1788:1791   */\n      dup6\n        /* \"#utility.yul\":1729:1800   */\n      tag_55\n      jump\t// in\n    tag_84:\n        /* \"#utility.yul\":1722:1800   */\n      swap4\n      pop\n        /* \"#utility.yul\":1809:1874   */\n      tag_85\n        /* \"#utility.yul\":1867:1873   */\n      dup2\n        /* \"#utility.yul\":1862:1865   */\n      dup6\n        /* \"#utility.yul\":1855:1859   */\n      0x20\n        /* \"#utility.yul\":1848:1853   */\n      dup7\n        /* \"#utility.yul\":1844:1860   */\n      add\n        /* \"#utility.yul\":1809:1874   */\n      tag_56\n      jump\t// in\n    tag_85:\n        /* \"#utility.yul\":1899:1928   */\n      tag_86\n        /* \"#utility.yul\":1921:1927   */\n      dup2\n        /* \"#utility.yul\":1899:1928   */\n      tag_57\n      jump\t// in\n    tag_86:\n        /* \"#utility.yul\":1894:1897   */\n      dup5\n        /* \"#utility.yul\":1890:1929   */\n      add\n        /* \"#utility.yul\":1883:1929   */\n      swap2\n      pop\n        /* \"#utility.yul\":1650:1935   */\n      pop\n        /* \"#utility.yul\":1558:1935   */\n      swap3\n      swap2\n      pop\n      pop\n      jump\t// out\n        /* \"#utility.yul\":1941:2254   */\n    tag_13:\n        /* \"#utility.yul\":2054:2058   */\n      0x00\n        /* \"#utility.yul\":2092:2094   */\n      0x20\n        /* \"#utility.yul\":2081:2090   */\n      dup3\n        /* \"#utility.yul\":2077:2095   */\n      add\n        /* \"#utility.yul\":2069:2095   */\n      swap1\n      pop\n        /* \"#utility.yul\":2141:2150   */\n      dup2\n        /* \"#utility.yul\":2135:2139   */\n      dup2\n        /* \"#utility.yul\":2131:2151   */\n      sub\n        /* \"#utility.yul\":2127:2128   */\n      0x00\n        /* \"#utility.yul\":2116:2125   */\n      dup4\n        /* \"#utility.yul\":2112:2129   */\n      add\n        /* \"#utility.yul\":2105:2152   */\n      mstore\n        /* \"#utility.yul\":2169:2247   */\n      tag_88\n        /* \"#utility.yul\":2242:2246   */\n      dup2\n        /* \"#utility.yul\":2233:2239   */\n      dup5\n        /* \"#utility.yul\":2169:2247   */\n      tag_58\n      jump\t// in\n    tag_88:\n        /* \"#utility.yul\":2161:2247   */\n      swap1\n      pop\n        /* \"#utility.yul\":1941:2254   */\n      swap3\n      swap2\n      pop\n      pop\n      jump\t// out\n        /* \"#utility.yul\":2260:2350   */\n    tag_59:\n        /* \"#utility.yul\":2294:2301   */\n      0x00\n        /* \"#utility.yul\":2337:2342   */\n      dup2\n        /* \"#utility.yul\":2330:2343   */\n      iszero\n        /* \"#utility.yul\":2323:2344   */\n      iszero\n        /* \"#utility.yul\":2312:2344   */\n      swap1\n      pop\n        /* \"#utility.yul\":2260:2350   */\n      swap2\n      swap1\n      pop\n      jump\t// out\n        /* \"#utility.yul\":2356:2472   */\n    tag_60:\n        /* \"#utility.yul\":2426:2447   */\n      tag_91\n        /* \"#utility.yul\":2441:2446   */\n      dup2\n        /* \"#utility.yul\":2426:2447   */\n      tag_59\n      jump\t// in\n    tag_91:\n        /* \"#utility.yul\":2419:2424   */\n      dup2\n        /* \"#utility.yul\":2416:2448   */\n      eq\n        /* \"#utility.yul\":2406:2466   */\n      tag_92\n      jumpi\n        /* \"#utility.yul\":2462:2463   */\n      0x00\n        /* \"#utility.yul\":2459:2460   */\n      0x00\n        /* \"#utility.yul\":2452:2464   */\n      revert\n        /* \"#utility.yul\":2406:2466   */\n    tag_92:\n        /* \"#utility.yul\":2356:2472   */\n      pop\n      jump\t// out\n        /* \"#utility.yul\":2478:2611   */\n    tag_61:\n        /* \"#utility.yul\":2521:2526   */\n      0x00\n        /* \"#utility.yul\":2559:2565   */\n      dup2\n        /* \"#utility.yul\":2546:2566   */\n      calldataload\n        /* \"#utility.yul\":2537:2566   */\n      swap1\n      pop\n        /* \"#utility.yul\":2575:2605   */\n      tag_94\n        /* \"#utility.yul\":2599:2604   */\n      dup2\n        /* \"#utility.yul\":2575:2605   */\n      tag_60\n      jump\t// in\n    tag_94:\n        /* \"#utility.yul\":2478:2611   */\n      swap3\n      swap2\n      pop\n      pop\n      jump\t// out\n        /* \"#utility.yul\":2617:2940   */\n    tag_20:\n        /* \"#utility.yul\":2673:2679   */\n      0x00\n        /* \"#utility.yul\":2722:2724   */\n      0x20\n        /* \"#utility.yul\":2710:2719   */\n      dup3\n        /* \"#utility.yul\":2701:2708   */\n      dup5\n        /* \"#utility.yul\":2697:2720   */\n      sub\n        /* \"#utility.yul\":2693:2725   */\n      slt\n        /* \"#utility.yul\":2690:2809   */\n      iszero\n      tag_96\n      jumpi\n        /* \"#utility.yul\":2728:2807   */\n      tag_97\n      tag_49\n      jump\t// in\n    tag_97:\n        /* \"#utility.yul\":2690:2809   */\n    tag_96:\n        /* \"#utility.yul\":2848:2849   */\n      0x00\n        /* \"#utility.yul\":2873:2923   */\n      tag_98\n        /* \"#utility.yul\":2915:2922   */\n      dup5\n        /* \"#utility.yul\":2906:2912   */\n      dup3\n        /* \"#utility.yul\":2895:2904   */\n      dup6\n        /* \"#utility.yul\":2891:2913   */\n      add\n        /* \"#utility.yul\":2873:2923   */\n      tag_61\n      jump\t// in\n    tag_98:\n        /* \"#utility.yul\":2863:2923   */\n      swap2\n      pop\n        /* \"#utility.yul\":2819:2933   */\n      pop\n        /* \"#utility.yul\":2617:2940   */\n      swap3\n      swap2\n      pop\n      pop\n      jump\t// out\n        /* \"#utility.yul\":2946:3113   */\n    tag_62:\n        /* \"#utility.yul\":3086:3105   */\n      0x496e76616c696420636f6e646974696f6e000000000000000000000000000000\n        /* \"#utility.yul\":3082:3083   */\n      0x00\n        /* \"#utility.yul\":3074:3080   */\n      dup3\n        /* \"#utility.yul\":3070:3084   */\n      add\n        /* \"#utility.yul\":3063:3106   */\n      mstore\n        /* \"#utility.yul\":2946:3113   */\n      pop\n      jump\t// out\n        /* \"#utility.yul\":3119:3485   */\n    tag_63:\n        /* \"#utility.yul\":3261:3264   */\n      0x00\n        /* \"#utility.yul\":3282:3349   */\n      tag_101\n        /* \"#utility.yul\":3346:3348   */\n      0x11\n        /* \"#utility.yul\":3341:3344   */\n      dup4\n        /* \"#utility.yul\":3282:3349   */\n      tag_55\n      jump\t// in\n    tag_101:\n        /* \"#utility.yul\":3275:3349   */\n      swap2\n      pop\n        /* \"#utility.yul\":3358:3451   */\n      tag_102\n        /* \"#utility.yul\":3447:3450   */\n      dup3\n        /* \"#utility.yul\":3358:3451   */\n      tag_62\n      jump\t// in\n    tag_102:\n        /* \"#utility.yul\":3476:3478   */\n      0x20\n        /* \"#utility.yul\":3471:3474   */\n      dup3\n        /* \"#utility.yul\":3467:3479   */\n      add\n        /* \"#utility.yul\":3460:3479   */\n      swap1\n      pop\n        /* \"#utility.yul\":3119:3485   */\n      swap2\n      swap1\n      pop\n      jump\t// out\n        /* \"#utility.yul\":3491:3910   */\n    tag_40:\n        /* \"#utility.yul\":3657:3661   */\n      0x00\n        /* \"#utility.yul\":3695:3697   */\n      0x20\n        /* \"#utility.yul\":3684:3693   */\n      dup3\n        /* \"#utility.yul\":3680:3698   */\n      add\n        /* \"#utility.yul\":3672:3698   */\n      swap1\n      pop\n        /* \"#utility.yul\":3744:3753   */\n      dup2\n        /* \"#utility.yul\":3738:3742   */\n      dup2\n        /* \"#utility.yul\":3734:3754   */\n      sub\n        /* \"#utility.yul\":3730:3731   */\n      0x00\n        /* \"#utility.yul\":3719:3728   */\n      dup4\n        /* \"#utility.yul\":3715:3732   */\n      add\n        /* \"#utility.yul\":3708:3755   */\n      mstore\n        /* \"#utility.yul\":3772:3903   */\n      tag_104\n        /* \"#utility.yul\":3898:3902   */\n      dup2\n        /* \"#utility.yul\":3772:3903   */\n      tag_63\n      jump\t// in\n    tag_104:\n        /* \"#utility.yul\":3764:3903   */\n      swap1\n      pop\n        /* \"#utility.yul\":3491:3910   */\n      swap2\n      swap1\n      pop\n      jump\t// out\n        /* \"#utility.yul\":3916:4096   */\n    tag_47:\n        /* \"#utility.yul\":3964:4041   */\n      0x4e487b7100000000000000000000000000000000000000000000000000000000\n        /* \"#utility.yul\":3961:3962   */\n      0x00\n        /* \"#utility.yul\":3954:4042   */\n      mstore\n        /* \"#utility.yul\":4061:4065   */\n      0x01\n        /* \"#utility.yul\":4058:4059   */\n      0x04\n        /* \"#utility.yul\":4051:4066   */\n      mstore\n        /* \"#utility.yul\":4085:4089   */\n      0x24\n        /* \"#utility.yul\":4082:4083   */\n      0x00\n        /* \"#utility.yul\":4075:4090   */\n      revert\n\n    auxdata: 0xa2646970667358221220532029184b8964ae89461ac68dc7ee2ef55a40a872c20f606159743e2a45527d64736f6c634300081f0033\n}\n",
				"bytecode": {
					"linkReferences": {},
					"object": "6080604052348015600e575f5ffd5b5061056b8061001c5f395ff3fe608060405234801561000f575f5ffd5b5060043610610055575f3560e01c8063a43b47bf14610059578063b7e7048714610089578063be93fcb1146100b9578063e19b6e4f146100d5578063eb11813b14610105575b5f5ffd5b610073600480360381019061006e9190610385565b610121565b6040516100809190610420565b60405180910390f35b6100a3600480360381019061009e9190610385565b6101ec565b6040516100b09190610420565b60405180910390f35b6100d360048036038101906100ce9190610475565b610272565b005b6100ef60048036038101906100ea9190610385565b6102b5565b6040516100fc9190610420565b60405180910390f35b61011f600480360381019061011a9190610385565b61033b565b005b6060600a821115610169576040518060400160405280601881526020017f56616c75652069732067726561746572207468616e203130000000000000000081525090506101e7565b600a82036101ae576040518060400160405280601381526020017f56616c75652069732065786163746c792031300000000000000000000000000081525090506101e7565b6040518060400160405280601581526020017f56616c7565206973206c657373207468616e203130000000000000000000000081525090505b919050565b6060600a821115610234576040518060400160405280601881526020017f56616c75652069732067726561746572207468616e2031300000000000000000815250905061026d565b6040518060400160405280601381526020017f56616c7565206973203130206f72206c6573730000000000000000000000000081525090505b919050565b806102b2576040517f08c379a00000000000000000000000000000000000000000000000000000000081526004016102a9906104ea565b60405180910390fd5b50565b6060600a8211156102fd576040518060400160405280601881526020017f56616c75652069732067726561746572207468616e20313000000000000000008152509050610336565b6040518060400160405280601381526020017f56616c7565206973203130206f72206c6573730000000000000000000000000081525090505b919050565b5f810361034b5761034a610508565b5b50565b5f5ffd5b5f819050919050565b61036481610352565b811461036e575f5ffd5b50565b5f8135905061037f8161035b565b92915050565b5f6020828403121561039a5761039961034e565b5b5f6103a784828501610371565b91505092915050565b5f81519050919050565b5f82825260208201905092915050565b8281835e5f83830152505050565b5f601f19601f8301169050919050565b5f6103f2826103b0565b6103fc81856103ba565b935061040c8185602086016103ca565b610415816103d8565b840191505092915050565b5f6020820190508181035f83015261043881846103e8565b905092915050565b5f8115159050919050565b61045481610440565b811461045e575f5ffd5b50565b5f8135905061046f8161044b565b92915050565b5f6020828403121561048a5761048961034e565b5b5f61049784828501610461565b91505092915050565b7f496e76616c696420636f6e646974696f6e0000000000000000000000000000005f82015250565b5f6104d46011836103ba565b91506104df826104a0565b602082019050919050565b5f6020820190508181035f830152610501816104c8565b9050919050565b7f4e487b71000000000000000000000000000000000000000000000000000000005f52600160045260245ffdfea2646970667358221220532029184b8964ae89461ac68dc7ee2ef55a40a872c20f606159743e2a45527d64736f6c634300081f0033",
					"opcodes": "PUSH1 0x80 PUSH1 0x40 MSTORE CALLVALUE DUP1 ISZERO PUSH1 0xE JUMPI PUSH0 PUSH0 REVERT JUMPDEST POP PUSH2 0x56B DUP1 PUSH2 0x1C PUSH0 CODECOPY PUSH0 RETURN INVALID PUSH1 0x80 PUSH1 0x40 MSTORE CALLVALUE DUP1 ISZERO PUSH2 0xF JUMPI PUSH0 PUSH0 REVERT JUMPDEST POP PUSH1 0x4 CALLDATASIZE LT PUSH2 0x55 JUMPI PUSH0 CALLDATALOAD PUSH1 0xE0 SHR DUP1 PUSH4 0xA43B47BF EQ PUSH2 0x59 JUMPI DUP1 PUSH4 0xB7E70487 EQ PUSH2 0x89 JUMPI DUP1 PUSH4 0xBE93FCB1 EQ PUSH2 0xB9 JUMPI DUP1 PUSH4 0xE19B6E4F EQ PUSH2 0xD5 JUMPI DUP1 PUSH4 0xEB11813B EQ PUSH2 0x105 JUMPI JUMPDEST PUSH0 PUSH0 REVERT JUMPDEST PUSH2 0x73 PUSH1 0x4 DUP1 CALLDATASIZE SUB DUP2 ADD SWAP1 PUSH2 0x6E SWAP2 SWAP1 PUSH2 0x385 JUMP JUMPDEST PUSH2 0x121 JUMP JUMPDEST PUSH1 0x40 MLOAD PUSH2 0x80 SWAP2 SWAP1 PUSH2 0x420 JUMP JUMPDEST PUSH1 0x40 MLOAD DUP1 SWAP2 SUB SWAP1 RETURN JUMPDEST PUSH2 0xA3 PUSH1 0x4 DUP1 CALLDATASIZE SUB DUP2 ADD SWAP1 PUSH2 0x9E SWAP2 SWAP1 PUSH2 0x385 JUMP JUMPDEST PUSH2 0x1EC JUMP JUMPDEST PUSH1 0x40 MLOAD PUSH2 0xB0 SWAP2 SWAP1 PUSH2 0x420 JUMP JUMPDEST PUSH1 0x40 MLOAD DUP1 SWAP2 SUB SWAP1 RETURN JUMPDEST PUSH2 0xD3 PUSH1 0x4 DUP1 CALLDATASIZE SUB DUP2 ADD SWAP1 PUSH2 0xCE SWAP2 SWAP1 PUSH2 0x475 JUMP JUMPDEST PUSH2 0x272 JUMP JUMPDEST STOP JUMPDEST PUSH2 0xEF PUSH1 0x4 DUP1 CALLDATASIZE SUB DUP2 ADD SWAP1 PUSH2 0xEA SWAP2 SWAP1 PUSH2 0x385 JUMP JUMPDEST PUSH2 0x2B5 JUMP JUMPDEST PUSH1 0x40 MLOAD PUSH2 0xFC SWAP2 SWAP1 PUSH2 0x420 JUMP JUMPDEST PUSH1 0x40 MLOAD DUP1 SWAP2 SUB SWAP1 RETURN JUMPDEST PUSH2 0x11F PUSH1 0x4 DUP1 CALLDATASIZE SUB DUP2 ADD SWAP1 PUSH2 0x11A SWAP2 SWAP1 PUSH2 0x385 JUMP JUMPDEST PUSH2 0x33B JUMP JUMPDEST STOP JUMPDEST PUSH1 0x60 PUSH1 0xA DUP3 GT ISZERO PUSH2 0x169 JUMPI PUSH1 0x40 MLOAD DUP1 PUSH1 0x40 ADD PUSH1 0x40 MSTORE DUP1 PUSH1 0x18 DUP2 MSTORE PUSH1 0x20 ADD PUSH32 0x56616C75652069732067726561746572207468616E2031300000000000000000 DUP2 MSTORE POP SWAP1 POP PUSH2 0x1E7 JUMP JUMPDEST PUSH1 0xA DUP3 SUB PUSH2 0x1AE JUMPI PUSH1 0x40 MLOAD DUP1 PUSH1 0x40 ADD PUSH1 0x40 MSTORE DUP1 PUSH1 0x13 DUP2 MSTORE PUSH1 0x20 ADD PUSH32 0x56616C75652069732065786163746C7920313000000000000000000000000000 DUP2 MSTORE POP SWAP1 POP PUSH2 0x1E7 JUMP JUMPDEST PUSH1 0x40 MLOAD DUP1 PUSH1 0x40 ADD PUSH1 0x40 MSTORE DUP1 PUSH1 0x15 DUP2 MSTORE PUSH1 0x20 ADD PUSH32 0x56616C7565206973206C657373207468616E2031300000000000000000000000 DUP2 MSTORE POP SWAP1 POP JUMPDEST SWAP2 SWAP1 POP JUMP JUMPDEST PUSH1 0x60 PUSH1 0xA DUP3 GT ISZERO PUSH2 0x234 JUMPI PUSH1 0x40 MLOAD DUP1 PUSH1 0x40 ADD PUSH1 0x40 MSTORE DUP1 PUSH1 0x18 DUP2 MSTORE PUSH1 0x20 ADD PUSH32 0x56616C75652069732067726561746572207468616E2031300000000000000000 DUP2 MSTORE POP SWAP1 POP PUSH2 0x26D JUMP JUMPDEST PUSH1 0x40 MLOAD DUP1 PUSH1 0x40 ADD PUSH1 0x40 MSTORE DUP1 PUSH1 0x13 DUP2 MSTORE PUSH1 0x20 ADD PUSH32 0x56616C7565206973203130206F72206C65737300000000000000000000000000 DUP2 MSTORE POP SWAP1 POP JUMPDEST SWAP2 SWAP1 POP JUMP JUMPDEST DUP1 PUSH2 0x2B2 JUMPI PUSH1 0x40 MLOAD PUSH32 0x8C379A000000000000000000000000000000000000000000000000000000000 DUP2 MSTORE PUSH1 0x4 ADD PUSH2 0x2A9 SWAP1 PUSH2 0x4EA JUMP JUMPDEST PUSH1 0x40 MLOAD DUP1 SWAP2 SUB SWAP1 REVERT JUMPDEST POP JUMP JUMPDEST PUSH1 0x60 PUSH1 0xA DUP3 GT ISZERO PUSH2 0x2FD JUMPI PUSH1 0x40 MLOAD DUP1 PUSH1 0x40 ADD PUSH1 0x40 MSTORE DUP1 PUSH1 0x18 DUP2 MSTORE PUSH1 0x20 ADD PUSH32 0x56616C75652069732067726561746572207468616E2031300000000000000000 DUP2 MSTORE POP SWAP1 POP PUSH2 0x336 JUMP JUMPDEST PUSH1 0x40 MLOAD DUP1 PUSH1 0x40 ADD PUSH1 0x40 MSTORE DUP1 PUSH1 0x13 DUP2 MSTORE PUSH1 0x20 ADD PUSH32 0x56616C7565206973203130206F72206C65737300000000000000000000000000 DUP2 MSTORE POP SWAP1 POP JUMPDEST SWAP2 SWAP1 POP JUMP JUMPDEST PUSH0 DUP2 SUB PUSH2 0x34B JUMPI PUSH2 0x34A PUSH2 0x508 JUMP JUMPDEST JUMPDEST POP JUMP JUMPDEST PUSH0 PUSH0 REVERT JUMPDEST PUSH0 DUP2 SWAP1 POP SWAP2 SWAP1 POP JUMP JUMPDEST PUSH2 0x364 DUP2 PUSH2 0x352 JUMP JUMPDEST DUP2 EQ PUSH2 0x36E JUMPI PUSH0 PUSH0 REVERT JUMPDEST POP JUMP JUMPDEST PUSH0 DUP2 CALLDATALOAD SWAP1 POP PUSH2 0x37F DUP2 PUSH2 0x35B JUMP JUMPDEST SWAP3 SWAP2 POP POP JUMP JUMPDEST PUSH0 PUSH1 0x20 DUP3 DUP5 SUB SLT ISZERO PUSH2 0x39A JUMPI PUSH2 0x399 PUSH2 0x34E JUMP JUMPDEST JUMPDEST PUSH0 PUSH2 0x3A7 DUP5 DUP3 DUP6 ADD PUSH2 0x371 JUMP JUMPDEST SWAP2 POP POP SWAP3 SWAP2 POP POP JUMP JUMPDEST PUSH0 DUP2 MLOAD SWAP1 POP SWAP2 SWAP1 POP JUMP JUMPDEST PUSH0 DUP3 DUP3 MSTORE PUSH1 0x20 DUP3 ADD SWAP1 POP SWAP3 SWAP2 POP POP JUMP JUMPDEST DUP3 DUP2 DUP4 MCOPY PUSH0 DUP4 DUP4 ADD MSTORE POP POP POP JUMP JUMPDEST PUSH0 PUSH1 0x1F NOT PUSH1 0x1F DUP4 ADD AND SWAP1 POP SWAP2 SWAP1 POP JUMP JUMPDEST PUSH0 PUSH2 0x3F2 DUP3 PUSH2 0x3B0 JUMP JUMPDEST PUSH2 0x3FC DUP2 DUP6 PUSH2 0x3BA JUMP JUMPDEST SWAP4 POP PUSH2 0x40C DUP2 DUP6 PUSH1 0x20 DUP7 ADD PUSH2 0x3CA JUMP JUMPDEST PUSH2 0x415 DUP2 PUSH2 0x3D8 JUMP JUMPDEST DUP5 ADD SWAP2 POP POP SWAP3 SWAP2 POP POP JUMP JUMPDEST PUSH0 PUSH1 0x20 DUP3 ADD SWAP1 POP DUP2 DUP2 SUB PUSH0 DUP4 ADD MSTORE PUSH2 0x438 DUP2 DUP5 PUSH2 0x3E8 JUMP JUMPDEST SWAP1 POP SWAP3 SWAP2 POP POP JUMP JUMPDEST PUSH0 DUP2 ISZERO ISZERO SWAP1 POP SWAP2 SWAP1 POP JUMP JUMPDEST PUSH2 0x454 DUP2 PUSH2 0x440 JUMP JUMPDEST DUP2 EQ PUSH2 0x45E JUMPI PUSH0 PUSH0 REVERT JUMPDEST POP JUMP JUMPDEST PUSH0 DUP2 CALLDATALOAD SWAP1 POP PUSH2 0x46F DUP2 PUSH2 0x44B JUMP JUMPDEST SWAP3 SWAP2 POP POP JUMP JUMPDEST PUSH0 PUSH1 0x20 DUP3 DUP5 SUB SLT ISZERO PUSH2 0x48A JUMPI PUSH2 0x489 PUSH2 0x34E JUMP JUMPDEST JUMPDEST PUSH0 PUSH2 0x497 DUP5 DUP3 DUP6 ADD PUSH2 0x461 JUMP JUMPDEST SWAP2 POP POP SWAP3 SWAP2 POP POP JUMP JUMPDEST PUSH32 0x496E76616C696420636F6E646974696F6E000000000000000000000000000000 PUSH0 DUP3 ADD MSTORE POP JUMP JUMPDEST PUSH0 PUSH2 0x4D4 PUSH1 0x11 DUP4 PUSH2 0x3BA JUMP JUMPDEST SWAP2 POP PUSH2 0x4DF DUP3 PUSH2 0x4A0 JUMP JUMPDEST PUSH1 0x20 DUP3 ADD SWAP1 POP SWAP2 SWAP1 POP JUMP JUMPDEST PUSH0 PUSH1 0x20 DUP3 ADD SWAP1 POP DUP2 DUP2 SUB PUSH0 DUP4 ADD MSTORE PUSH2 0x501 DUP2 PUSH2 0x4C8 JUMP JUMPDEST SWAP1 POP SWAP2 SWAP1 POP JUMP JUMPDEST PUSH32 0x4E487B7100000000000000000000000000000000000000000000000000000000 PUSH0 MSTORE PUSH1 0x1 PUSH1 0x4 MSTORE PUSH1 0x24 PUSH0 REVERT INVALID LOG2 PUSH5 0x6970667358 0x22 SLT KECCAK256 MSTORE8 KECCAK256 0x29 XOR 0x4B DUP10 PUSH5 0xAE89461AC6 DUP14 0xC7 RETURNCONTRACT 0x2E CREATE2 GAS BLOCKHASH 0xA8 PUSH19 0xC20F606159743E2A45527D64736F6C63430008 0x1F STOP CALLER "
				},
				"gasEstimates": {
					"creation": {
						"codeDepositCost": "277400",
						"executionCost": "316",
						"totalCost": "277716"
					},
					"external": {
						"assertExample(uint256)": "514",
						"elseIfExample(uint256)": "infinite",
						"ifElseExample(uint256)": "infinite",
						"revertExample(bool)": "728",
						"ternaryExample(uint256)": "infinite"
					}
				},
				"methodIdentifiers": {
					"assertExample(uint256)": "eb11813b",
					"elseIfExample(uint256)": "a43b47bf",
					"ifElseExample(uint256)": "b7e70487",
					"revertExample(bool)": "be93fcb1",
					"ternaryExample(uint256)": "e19b6e4f"
				}
			},
			"storageLayout": {
				"storage": [],
				"types": null
			},
			"userdoc": {
				"kind": "user",
				"methods": {},
				"version": 1
			}
		}
	}
}