{
	"tasks/Task_06.sol": {
		"Task_06": {
			"abi": [
				{
					"inputs": [],
					"name": "MAX_UINT",
					"outputs": [
						{
							"internalType": "uint256",
							"name": "",
							"type": "uint256"
						}
					],
					"stateMutability": "view",
					"type": "function"
				},
				{
					"inputs": [],
					"name": "MAX_UINT8",
					"outputs": [
						{
							"internalType": "uint8",
							"name": "",
							"type": "uint8"
						}
					],
					"stateMutability": "view",
					"type": "function"
				},
				{
					"inputs": [],
					"name": "getMaxUint256",
					"outputs": [
						{
							"internalType": "uint256",
							"name": "",
							"type": "uint256"
						}
					],
					"stateMutability": "pure",
					"type": "function"
				},
				{
					"inputs": [],
					"name": "getMaxUint8",
					"outputs": [
						{
							"internalType": "uint8",
							"name": "",
							"type": "uint8"
						}
					],
					"stateMutability": "pure",
					"type": "function"
				}
			],
			"devdoc": {
				"kind": "dev",
				"methods": {},
				"version": 1
			},
			"evm": {
				"assembly": "    /* \"tasks/Task_06.sol\":58:738  contract Task_06 {... */\n  mstore(0x40, 0x80)\n  callvalue\n  dup1\n  iszero\n  tag_1\n  jumpi\n  revert(0x00, 0x00)\ntag_1:\n  pop\n  dataSize(sub_0)\n  dup1\n  dataOffset(sub_0)\n  0x00\n  codecopy\n  0x00\n  return\nstop\n\nsub_0: assembly {\n        /* \"tasks/Task_06.sol\":58:738  contract Task_06 {... */\n      mstore(0x40, 0x80)\n      callvalue\n      dup1\n      iszero\n      tag_1\n      jumpi\n      revert(0x00, 0x00)\n    tag_1:\n      pop\n      jumpi(tag_2, lt(calldatasize, 0x04))\n      shr(0xe0, calldataload(0x00))\n      dup1\n      0x91ca4fd1\n      eq\n      tag_3\n      jumpi\n      dup1\n      0xd3c60c7a\n      eq\n      tag_4\n      jumpi\n      dup1\n      0xd4887437\n      eq\n      tag_5\n      jumpi\n      dup1\n      0xe5b5019a\n      eq\n      tag_6\n      jumpi\n    tag_2:\n      revert(0x00, 0x00)\n        /* \"tasks/Task_06.sol\":547:736  function getMaxUint8() external pure returns (uint8) {... */\n    tag_3:\n      tag_7\n      tag_8\n      jump\t// in\n    tag_7:\n      mload(0x40)\n      tag_9\n      swap2\n      swap1\n      tag_10\n      jump\t// in\n    tag_9:\n      mload(0x40)\n      dup1\n      swap2\n      sub\n      swap1\n      return\n        /* \"tasks/Task_06.sol\":293:446  function getMaxUint256() external pure returns (uint256) {... */\n    tag_4:\n      tag_11\n      tag_12\n      jump\t// in\n    tag_11:\n      mload(0x40)\n      tag_13\n      swap2\n      swap1\n      tag_14\n      jump\t// in\n    tag_13:\n      mload(0x40)\n      dup1\n      swap2\n      sub\n      swap1\n      return\n        /* \"tasks/Task_06.sol\":190:239  uint8 public constant MAX_UINT8 = type(uint8).max */\n    tag_5:\n      tag_15\n      tag_16\n      jump\t// in\n    tag_15:\n      mload(0x40)\n      tag_17\n      swap2\n      swap1\n      tag_10\n      jump\t// in\n    tag_17:\n      mload(0x40)\n      dup1\n      swap2\n      sub\n      swap1\n      return\n        /* \"tasks/Task_06.sol\":80:132  uint256 public constant MAX_UINT = type(uint256).max */\n    tag_6:\n      tag_18\n      tag_19\n      jump\t// in\n    tag_18:\n      mload(0x40)\n      tag_20\n      swap2\n      swap1\n      tag_14\n      jump\t// in\n    tag_20:\n      mload(0x40)\n      dup1\n      swap2\n      sub\n      swap1\n      return\n        /* \"tasks/Task_06.sol\":547:736  function getMaxUint8() external pure returns (uint8) {... */\n    tag_8:\n        /* \"tasks/Task_06.sol\":593:598  uint8 */\n      0x00\n        /* \"tasks/Task_06.sol\":224:239  type(uint8).max */\n      0xff\n        /* \"tasks/Task_06.sol\":609:625  return MAX_UINT8 */\n      swap1\n      pop\n        /* \"tasks/Task_06.sol\":547:736  function getMaxUint8() external pure returns (uint8) {... */\n      swap1\n      jump\t// out\n        /* \"tasks/Task_06.sol\":293:446  function getMaxUint256() external pure returns (uint256) {... */\n    tag_12:\n        /* \"tasks/Task_06.sol\":341:348  uint256 */\n      0x00\n        /* \"tasks/Task_06.sol\":115:132  type(uint256).max */\n      0xffffffffffffffffffffffffffffffffffffffffffffffffffffffffffffffff\n        /* \"tasks/Task_06.sol\":359:374  return MAX_UINT */\n      swap1\n      pop\n        /* \"tasks/Task_06.sol\":293:446  function getMaxUint256() external pure returns (uint256) {... */\n      swap1\n      jump\t// out\n        /* \"tasks/Task_06.sol\":190:239  uint8 public constant MAX_UINT8 = type(uint8).max */\n    tag_16:\n        /* \"tasks/Task_06.sol\":224:239  type(uint8).max */\n      0xff\n        /* \"tasks/Task_06.sol\":190:239  uint8 public constant MAX_UINT8 = type(uint8).max */\n      dup2\n      jump\t// out\n        /* \"tasks/Task_06.sol\":80:132  uint256 public constant MAX_UINT = type(uint256).max */\n    tag_19:\n        /* \"tasks/Task_06.sol\":115:132  type(uint256).max */\n      0xffffffffffffffffffffffffffffffffffffffffffffffffffffffffffffffff\n        /* \"tasks/Task_06.sol\":80:132  uint256 public constant MAX_UINT = type(uint256).max */\n      dup2\n      jump\t// out\n        /* \"#utility.yul\":7:93   */\n    tag_23:\n        /* \"#utility.yul\":42:49   */\n      0x00\n        /* \"#utility.yul\":82:86   */\n      0xff\n        /* \"#utility.yul\":75:80   */\n      dup3\n        /* \"#utility.yul\":71:87   */\n      and\n        /* \"#utility.yul\":60:87   */\n      swap1\n      pop\n        /* \"#utility.yul\":7:93   */\n      swap2\n      swap1\n      pop\n      jump\t// out\n        /* \"#utility.yul\":99:211   */\n    tag_24:\n        /* \"#utility.yul\":182:204   */\n      tag_30\n        /* \"#utility.yul\":198:203   */\n      dup2\n        /* \"#utility.yul\":182:204   */\n      tag_23\n      jump\t// in\n    tag_30:\n        /* \"#utility.yul\":177:180   */\n      dup3\n        /* \"#utility.yul\":170:205   */\n      mstore\n        /* \"#utility.yul\":99:211   */\n      pop\n      pop\n      jump\t// out\n        /* \"#utility.yul\":217:431   */\n    tag_10:\n        /* \"#utility.yul\":306:310   */\n      0x00\n        /* \"#utility.yul\":344:346   */\n      0x20\n        /* \"#utility.yul\":333:342   */\n      dup3\n        /* \"#utility.yul\":329:347   */\n      add\n        /* \"#utility.yul\":321:347   */\n      swap1\n      pop\n        /* \"#utility.yul\":357:424   */\n      tag_32\n        /* \"#utility.yul\":421:422   */\n      0x00\n        /* \"#utility.yul\":410:419   */\n      dup4\n        /* \"#utility.yul\":406:423   */\n      add\n        /* \"#utility.yul\":397:403   */\n      dup5\n        /* \"#utility.yul\":357:424   */\n      tag_24\n      jump\t// in\n    tag_32:\n        /* \"#utility.yul\":217:431   */\n      swap3\n      swap2\n      pop\n      pop\n      jump\t// out\n        /* \"#utility.yul\":437:514   */\n    tag_25:\n        /* \"#utility.yul\":474:481   */\n      0x00\n        /* \"#utility.yul\":503:508   */\n      dup2\n        /* \"#utility.yul\":492:508   */\n      swap1\n      pop\n        /* \"#utility.yul\":437:514   */\n      swap2\n      swap1\n      pop\n      jump\t// out\n        /* \"#utility.yul\":520:638   */\n    tag_26:\n        /* \"#utility.yul\":607:631   */\n      tag_35\n        /* \"#utility.yul\":625:630   */\n      dup2\n        /* \"#utility.yul\":607:631   */\n      tag_25\n      jump\t// in\n    tag_35:\n        /* \"#utility.yul\":602:605   */\n      dup3\n        /* \"#utility.yul\":595:632   */\n      mstore\n        /* \"#utility.yul\":520:638   */\n      pop\n      pop\n      jump\t// out\n        /* \"#utility.yul\":644:866   */\n    tag_14:\n        /* \"#utility.yul\":737:741   */\n      0x00\n        /* \"#utility.yul\":775:777   */\n      0x20\n        /* \"#utility.yul\":764:773   */\n      dup3\n        /* \"#utility.yul\":760:778   */\n      add\n        /* \"#utility.yul\":752:778   */\n      swap1\n      pop\n        /* \"#utility.yul\":788:859   */\n      tag_37\n        /* \"#utility.yul\":856:857   */\n      0x00\n        /* \"#utility.yul\":845:854   */\n      dup4\n        /* \"#utility.yul\":841:858   */\n      add\n        /* \"#utility.yul\":832:838   */\n      dup5\n        /* \"#utility.yul\":788:859   */\n      tag_26\n      jump\t// in\n    tag_37:\n        /* \"#utility.yul\":644:866   */\n      swap3\n      swap2\n      pop\n      pop\n      jump\t// out\n\n    auxdata: 0xa2646970667358221220f31d39e4803f6d4888d9294e44094988d88e3a89757b004f5b951c73fabfbffd64736f6c634300081f0033\n}\n",
				"bytecode": {
					"linkReferences": {},
					"object": "6080604052348015600e575f5ffd5b506101b98061001c5f395ff3fe608060405234801561000f575f5ffd5b506004361061004a575f3560e01c806391ca4fd11461004e578063d3c60c7a1461006c578063d48874371461008a578063e5b5019a146100a8575b5f5ffd5b6100566100c6565b6040516100639190610139565b60405180910390f35b6100746100ce565b604051610081919061016a565b60405180910390f35b6100926100f5565b60405161009f9190610139565b60405180910390f35b6100b06100fa565b6040516100bd919061016a565b60405180910390f35b5f60ff905090565b5f7fffffffffffffffffffffffffffffffffffffffffffffffffffffffffffffffff905090565b60ff81565b7fffffffffffffffffffffffffffffffffffffffffffffffffffffffffffffffff81565b5f60ff82169050919050565b6101338161011e565b82525050565b5f60208201905061014c5f83018461012a565b92915050565b5f819050919050565b61016481610152565b82525050565b5f60208201905061017d5f83018461015b565b9291505056fea2646970667358221220f31d39e4803f6d4888d9294e44094988d88e3a89757b004f5b951c73fabfbffd64736f6c634300081f0033",
					"opcodes": "PUSH1 0x80 PUSH1 0x40 MSTORE CALLVALUE DUP1 ISZERO PUSH1 0xE JUMPI PUSH0 PUSH0 REVERT JUMPDEST POP PUSH2 0x1B9 DUP1 PUSH2 0x1C PUSH0 CODECOPY PUSH0 RETURN INVALID PUSH1 0x80 PUSH1 0x40 MSTORE CALLVALUE DUP1 ISZERO PUSH2 0xF JUMPI PUSH0 PUSH0 REVERT JUMPDEST POP PUSH1 0x4 CALLDATASIZE LT PUSH2 0x4A JUMPI PUSH0 CALLDATALOAD PUSH1 0xE0 SHR DUP1 PUSH4 0x91CA4FD1 EQ PUSH2 0x4E JUMPI DUP1 PUSH4 0xD3C60C7A EQ PUSH2 0x6C JUMPI DUP1 PUSH4 0xD4887437 EQ PUSH2 0x8A JUMPI DUP1 PUSH4 0xE5B5019A EQ PUSH2 0xA8 JUMPI JUMPDEST PUSH0 PUSH0 REVERT JUMPDEST PUSH2 0x56 PUSH2 0xC6 JUMP JUMPDEST PUSH1 0x40 MLOAD PUSH2 0x63 SWAP2 SWAP1 PUSH2 0x139 JUMP JUMPDEST PUSH1 0x40 MLOAD DUP1 SWAP2 SUB SWAP1 RETURN JUMPDEST PUSH2 0x74 PUSH2 0xCE JUMP JUMPDEST PUSH1 0x40 MLOAD PUSH2 0x81 SWAP2 SWAP1 PUSH2 0x16A JUMP JUMPDEST PUSH1 0x40 MLOAD DUP1 SWAP2 SUB SWAP1 RETURN JUMPDEST PUSH2 0x92 PUSH2 0xF5 JUMP JUMPDEST PUSH1 0x40 MLOAD PUSH2 0x9F SWAP2 SWAP1 PUSH2 0x139 JUMP JUMPDEST PUSH1 0x40 MLOAD DUP1 SWAP2 SUB SWAP1 RETURN JUMPDEST PUSH2 0xB0 PUSH2 0xFA JUMP JUMPDEST PUSH1 0x40 MLOAD PUSH2 0xBD SWAP2 SWAP1 PUSH2 0x16A JUMP JUMPDEST PUSH1 0x40 MLOAD DUP1 SWAP2 SUB SWAP1 RETURN JUMPDEST PUSH0 PUSH1 0xFF SWAP1 POP SWAP1 JUMP JUMPDEST PUSH0 PUSH32 0xFFFFFFFFFFFFFFFFFFFFFFFFFFFFFFFFFFFFFFFFFFFFFFFFFFFFFFFFFFFFFFFF SWAP1 POP SWAP1 JUMP JUMPDEST PUSH1 0xFF DUP2 JUMP JUMPDEST PUSH32 0xFFFFFFFFFFFFFFFFFFFFFFFFFFFFFFFFFFFFFFFFFFFFFFFFFFFFFFFFFFFFFFFF DUP2 JUMP JUMPDEST PUSH0 PUSH1 0xFF DUP3 AND SWAP1 POP SWAP2 SWAP1 POP JUMP JUMPDEST PUSH2 0x133 DUP2 PUSH2 0x11E JUMP JUMPDEST DUP3 MSTORE POP POP JUMP JUMPDEST PUSH0 PUSH1 0x20 DUP3 ADD SWAP1 POP PUSH2 0x14C PUSH0 DUP4 ADD DUP5 PUSH2 0x12A JUMP JUMPDEST SWAP3 SWAP2 POP POP JUMP JUMPDEST PUSH0 DUP2 SWAP1 POP SWAP2 SWAP1 POP JUMP JUMPDEST PUSH2 0x164 DUP2 PUSH2 0x152 JUMP JUMPDEST DUP3 MSTORE POP POP JUMP JUMPDEST PUSH0 PUSH1 0x20 DUP3 ADD SWAP1 POP PUSH2 0x17D PUSH0 DUP4 ADD DUP5 PUSH2 0x15B JUMP JUMPDEST SWAP3 SWAP2 POP POP JUMP INVALID LOG2 PUSH5 0x6970667358 0x22 SLT KECCAK256 RETURN SAR CODECOPY RETF DUP1 EXTCODEHASH PUSH14 0x4888D9294E44094988D88E3A8975 PUSH28 0x4F5B951C73FABFBFFD64736F6C634300081F003300000000000000 "
				},
				"gasEstimates": {
					"creation": {
						"codeDepositCost": "88200",
						"executionCost": "133",
						"totalCost": "88333"
					},
					"external": {
						"MAX_UINT()": "369",
						"MAX_UINT8()": "353",
						"getMaxUint256()": "332",
						"getMaxUint8()": "316"
					}
				},
				"methodIdentifiers": {
					"MAX_UINT()": "e5b5019a",
					"MAX_UINT8()": "d4887437",
					"getMaxUint256()": "d3c60c7a",
					"getMaxUint8()": "91ca4fd1"
				}
			},
			"storageLayout": {
				"storage": [],
				"types": null
			},
			"userdoc": {
				"kind": "user",
				"methods": {},
				"version": 1
			}
		}
	}
}